{
  "_format": "hh-sol-artifact-1",
  "contractName": "Reward",
  "sourceName": "contracts/Reward.sol",
  "abi": [
    {
      "inputs": [
        {
          "internalType": "string",
          "name": "baseURI",
          "type": "string"
        },
        {
          "internalType": "uint256",
          "name": "maxWinners",
          "type": "uint256"
        }
      ],
      "stateMutability": "nonpayable",
      "type": "constructor"
    },
    {
      "inputs": [],
      "name": "Reward__ContractPaused",
      "type": "error"
    },
    {
      "inputs": [],
      "name": "Reward__MaxSupplyReached",
      "type": "error"
    },
    {
      "anonymous": false,
      "inputs": [
        {
          "indexed": true,
          "internalType": "address",
          "name": "owner",
          "type": "address"
        },
        {
          "indexed": true,
          "internalType": "address",
          "name": "approved",
          "type": "address"
        },
        {
          "indexed": true,
          "internalType": "uint256",
          "name": "tokenId",
          "type": "uint256"
        }
      ],
      "name": "Approval",
      "type": "event"
    },
    {
      "anonymous": false,
      "inputs": [
        {
          "indexed": true,
          "internalType": "address",
          "name": "owner",
          "type": "address"
        },
        {
          "indexed": true,
          "internalType": "address",
          "name": "operator",
          "type": "address"
        },
        {
          "indexed": false,
          "internalType": "bool",
          "name": "approved",
          "type": "bool"
        }
      ],
      "name": "ApprovalForAll",
      "type": "event"
    },
    {
      "anonymous": false,
      "inputs": [
        {
          "indexed": true,
          "internalType": "address",
          "name": "previousOwner",
          "type": "address"
        },
        {
          "indexed": true,
          "internalType": "address",
          "name": "newOwner",
          "type": "address"
        }
      ],
      "name": "OwnershipTransferred",
      "type": "event"
    },
    {
      "anonymous": false,
      "inputs": [
        {
          "indexed": true,
          "internalType": "address",
          "name": "from",
          "type": "address"
        },
        {
          "indexed": true,
          "internalType": "address",
          "name": "to",
          "type": "address"
        },
        {
          "indexed": true,
          "internalType": "uint256",
          "name": "tokenId",
          "type": "uint256"
        }
      ],
      "name": "Transfer",
      "type": "event"
    },
    {
      "stateMutability": "payable",
      "type": "fallback"
    },
    {
      "inputs": [
        {
          "internalType": "address",
          "name": "to",
          "type": "address"
        },
        {
          "internalType": "uint256",
          "name": "tokenId",
          "type": "uint256"
        }
      ],
      "name": "approve",
      "outputs": [],
      "stateMutability": "nonpayable",
      "type": "function"
    },
    {
      "inputs": [
        {
          "internalType": "address",
          "name": "owner",
          "type": "address"
        }
      ],
      "name": "balanceOf",
      "outputs": [
        {
          "internalType": "uint256",
          "name": "",
          "type": "uint256"
        }
      ],
      "stateMutability": "view",
      "type": "function"
    },
    {
      "inputs": [
        {
          "internalType": "uint256",
          "name": "tokenId",
          "type": "uint256"
        }
      ],
      "name": "getApproved",
      "outputs": [
        {
          "internalType": "address",
          "name": "",
          "type": "address"
        }
      ],
      "stateMutability": "view",
      "type": "function"
    },
    {
      "inputs": [],
      "name": "i_maxWinners",
      "outputs": [
        {
          "internalType": "uint256",
          "name": "",
          "type": "uint256"
        }
      ],
      "stateMutability": "view",
      "type": "function"
    },
    {
      "inputs": [
        {
          "internalType": "address",
          "name": "owner",
          "type": "address"
        },
        {
          "internalType": "address",
          "name": "operator",
          "type": "address"
        }
      ],
      "name": "isApprovedForAll",
      "outputs": [
        {
          "internalType": "bool",
          "name": "",
          "type": "bool"
        }
      ],
      "stateMutability": "view",
      "type": "function"
    },
    {
      "inputs": [
        {
          "internalType": "address",
          "name": "winner",
          "type": "address"
        }
      ],
      "name": "mint",
      "outputs": [],
      "stateMutability": "payable",
      "type": "function"
    },
    {
      "inputs": [],
      "name": "name",
      "outputs": [
        {
          "internalType": "string",
          "name": "",
          "type": "string"
        }
      ],
      "stateMutability": "view",
      "type": "function"
    },
    {
      "inputs": [],
      "name": "owner",
      "outputs": [
        {
          "internalType": "address",
          "name": "",
          "type": "address"
        }
      ],
      "stateMutability": "view",
      "type": "function"
    },
    {
      "inputs": [
        {
          "internalType": "uint256",
          "name": "tokenId",
          "type": "uint256"
        }
      ],
      "name": "ownerOf",
      "outputs": [
        {
          "internalType": "address",
          "name": "",
          "type": "address"
        }
      ],
      "stateMutability": "view",
      "type": "function"
    },
    {
      "inputs": [],
      "name": "renounceOwnership",
      "outputs": [],
      "stateMutability": "nonpayable",
      "type": "function"
    },
    {
      "inputs": [],
      "name": "s_paused",
      "outputs": [
        {
          "internalType": "bool",
          "name": "",
          "type": "bool"
        }
      ],
      "stateMutability": "view",
      "type": "function"
    },
    {
      "inputs": [],
      "name": "s_tokenIds",
      "outputs": [
        {
          "internalType": "uint256",
          "name": "",
          "type": "uint256"
        }
      ],
      "stateMutability": "view",
      "type": "function"
    },
    {
      "inputs": [
        {
          "internalType": "address",
          "name": "from",
          "type": "address"
        },
        {
          "internalType": "address",
          "name": "to",
          "type": "address"
        },
        {
          "internalType": "uint256",
          "name": "tokenId",
          "type": "uint256"
        }
      ],
      "name": "safeTransferFrom",
      "outputs": [],
      "stateMutability": "nonpayable",
      "type": "function"
    },
    {
      "inputs": [
        {
          "internalType": "address",
          "name": "from",
          "type": "address"
        },
        {
          "internalType": "address",
          "name": "to",
          "type": "address"
        },
        {
          "internalType": "uint256",
          "name": "tokenId",
          "type": "uint256"
        },
        {
          "internalType": "bytes",
          "name": "data",
          "type": "bytes"
        }
      ],
      "name": "safeTransferFrom",
      "outputs": [],
      "stateMutability": "nonpayable",
      "type": "function"
    },
    {
      "inputs": [
        {
          "internalType": "address",
          "name": "operator",
          "type": "address"
        },
        {
          "internalType": "bool",
          "name": "approved",
          "type": "bool"
        }
      ],
      "name": "setApprovalForAll",
      "outputs": [],
      "stateMutability": "nonpayable",
      "type": "function"
    },
    {
      "inputs": [
        {
          "internalType": "bool",
          "name": "val",
          "type": "bool"
        }
      ],
      "name": "setPaused",
      "outputs": [],
      "stateMutability": "nonpayable",
      "type": "function"
    },
    {
      "inputs": [
        {
          "internalType": "bytes4",
          "name": "interfaceId",
          "type": "bytes4"
        }
      ],
      "name": "supportsInterface",
      "outputs": [
        {
          "internalType": "bool",
          "name": "",
          "type": "bool"
        }
      ],
      "stateMutability": "view",
      "type": "function"
    },
    {
      "inputs": [],
      "name": "symbol",
      "outputs": [
        {
          "internalType": "string",
          "name": "",
          "type": "string"
        }
      ],
      "stateMutability": "view",
      "type": "function"
    },
    {
      "inputs": [
        {
          "internalType": "uint256",
          "name": "index",
          "type": "uint256"
        }
      ],
      "name": "tokenByIndex",
      "outputs": [
        {
          "internalType": "uint256",
          "name": "",
          "type": "uint256"
        }
      ],
      "stateMutability": "view",
      "type": "function"
    },
    {
      "inputs": [
        {
          "internalType": "address",
          "name": "owner",
          "type": "address"
        },
        {
          "internalType": "uint256",
          "name": "index",
          "type": "uint256"
        }
      ],
      "name": "tokenOfOwnerByIndex",
      "outputs": [
        {
          "internalType": "uint256",
          "name": "",
          "type": "uint256"
        }
      ],
      "stateMutability": "view",
      "type": "function"
    },
    {
      "inputs": [
        {
          "internalType": "uint256",
          "name": "tokenId",
          "type": "uint256"
        }
      ],
      "name": "tokenURI",
      "outputs": [
        {
          "internalType": "string",
          "name": "",
          "type": "string"
        }
      ],
      "stateMutability": "view",
      "type": "function"
    },
    {
      "inputs": [],
      "name": "totalSupply",
      "outputs": [
        {
          "internalType": "uint256",
          "name": "",
          "type": "uint256"
        }
      ],
      "stateMutability": "view",
      "type": "function"
    },
    {
      "inputs": [
        {
          "internalType": "address",
          "name": "from",
          "type": "address"
        },
        {
          "internalType": "address",
          "name": "to",
          "type": "address"
        },
        {
          "internalType": "uint256",
          "name": "tokenId",
          "type": "uint256"
        }
      ],
      "name": "transferFrom",
      "outputs": [],
      "stateMutability": "nonpayable",
      "type": "function"
    },
    {
      "inputs": [
        {
          "internalType": "address",
          "name": "newOwner",
          "type": "address"
        }
      ],
      "name": "transferOwnership",
      "outputs": [],
      "stateMutability": "nonpayable",
      "type": "function"
    },
    {
      "inputs": [],
      "name": "withdraw",
      "outputs": [],
      "stateMutability": "nonpayable",
      "type": "function"
    },
    {
      "stateMutability": "payable",
      "type": "receive"
    }
  ],
  "bytecode": "0x60a06040523480156200001157600080fd5b5060405162001f7c38038062001f7c8339810160408190526200003491620001e7565b604080518082018252600c81526b119c995948150b5cda1a5c9d60a21b602080830191825283518085019094526002845261121560f21b90840152815191929162000082916000916200012b565b508051620000989060019060208401906200012b565b505050620000b5620000af620000d560201b60201c565b620000d9565b8151620000ca90600b9060208501906200012b565b506080525062000309565b3390565b600a80546001600160a01b038381166001600160a01b0319831681179093556040519116919082907f8be0079c531659141344cd1fd0a4f28419497f9722a3daafe3b4186f6b6457e090600090a35050565b8280546200013990620002cc565b90600052602060002090601f0160209004810192826200015d5760008555620001a8565b82601f106200017857805160ff1916838001178555620001a8565b82800160010185558215620001a8579182015b82811115620001a85782518255916020019190600101906200018b565b50620001b6929150620001ba565b5090565b5b80821115620001b65760008155600101620001bb565b634e487b7160e01b600052604160045260246000fd5b60008060408385031215620001fb57600080fd5b82516001600160401b03808211156200021357600080fd5b818501915085601f8301126200022857600080fd5b8151818111156200023d576200023d620001d1565b604051601f8201601f19908116603f01168101908382118183101715620002685762000268620001d1565b816040528281526020935088848487010111156200028557600080fd5b600091505b82821015620002a957848201840151818301850152908301906200028a565b82821115620002bb5760008484830101525b969092015195979596505050505050565b600181811c90821680620002e157607f821691505b602082108114156200030357634e487b7160e01b600052602260045260246000fd5b50919050565b608051611c506200032c600039600081816102f301526109850152611c506000f3fe60806040526004361061015b5760003560e01c80634f6ccce7116100c85780638da5cb5b11610084578063b88d4fde11610061578063b88d4fde14610406578063c87b56dd14610426578063e985e9c514610446578063f2fde38b1461048f57005b80638da5cb5b146103b357806395d89b41146103d1578063a22cb465146103e657005b80634f6ccce714610315578063627f0c28146103355780636352211e1461034b5780636a6278421461036b57806370a082311461037e578063715018a61461039e57005b806323b872dd1161011757806323b872dd146102525780632f745c591461027257806339e1de07146102925780633ccfd60b146102ac57806342842e0e146102c1578063477195ac146102e157005b806301ffc9a71461016457806306fdde0314610199578063081812fc146101bb578063095ea7b3146101f357806316c38b3c1461021357806318160ddd1461023357005b3661016257005b005b34801561017057600080fd5b5061018461017f36600461175c565b6104af565b60405190151581526020015b60405180910390f35b3480156101a557600080fd5b506101ae6104da565b60405161019091906117d1565b3480156101c757600080fd5b506101db6101d63660046117e4565b61056c565b6040516001600160a01b039091168152602001610190565b3480156101ff57600080fd5b5061016261020e366004611819565b610593565b34801561021f57600080fd5b5061016261022e366004611853565b6106ae565b34801561023f57600080fd5b506008545b604051908152602001610190565b34801561025e57600080fd5b5061016261026d36600461186e565b6106c9565b34801561027e57600080fd5b5061024461028d366004611819565b6106fa565b34801561029e57600080fd5b50600c546101849060ff1681565b3480156102b857600080fd5b50610162610790565b3480156102cd57600080fd5b506101626102dc36600461186e565b610849565b3480156102ed57600080fd5b506102447f000000000000000000000000000000000000000000000000000000000000000081565b34801561032157600080fd5b506102446103303660046117e4565b610864565b34801561034157600080fd5b50610244600d5481565b34801561035757600080fd5b506101db6103663660046117e4565b6108f7565b6101626103793660046118aa565b610957565b34801561038a57600080fd5b506102446103993660046118aa565b6109fb565b3480156103aa57600080fd5b50610162610a81565b3480156103bf57600080fd5b50600a546001600160a01b03166101db565b3480156103dd57600080fd5b506101ae610a95565b3480156103f257600080fd5b506101626104013660046118c5565b610aa4565b34801561041257600080fd5b5061016261042136600461190e565b610ab3565b34801561043257600080fd5b506101ae6104413660046117e4565b610aeb565b34801561045257600080fd5b506101846104613660046119ea565b6001600160a01b03918216600090815260056020908152604080832093909416825291909152205460ff1690565b34801561049b57600080fd5b506101626104aa3660046118aa565b610bbb565b60006001600160e01b0319821663780e9d6360e01b14806104d457506104d482610c31565b92915050565b6060600080546104e990611a14565b80601f016020809104026020016040519081016040528092919081815260200182805461051590611a14565b80156105625780601f1061053757610100808354040283529160200191610562565b820191906000526020600020905b81548152906001019060200180831161054557829003601f168201915b5050505050905090565b600061057782610c81565b506000908152600460205260409020546001600160a01b031690565b600061059e826108f7565b9050806001600160a01b0316836001600160a01b031614156106115760405162461bcd60e51b815260206004820152602160248201527f4552433732313a20617070726f76616c20746f2063757272656e74206f776e656044820152603960f91b60648201526084015b60405180910390fd5b336001600160a01b038216148061062d575061062d8133610461565b61069f5760405162461bcd60e51b815260206004820152603d60248201527f4552433732313a20617070726f76652063616c6c6572206973206e6f7420746f60448201527f6b656e206f776e6572206f7220617070726f76656420666f7220616c6c0000006064820152608401610608565b6106a98383610ce0565b505050565b6106b6610d4e565b600c805460ff1916911515919091179055565b6106d33382610da8565b6106ef5760405162461bcd60e51b815260040161060890611a4f565b6106a9838383610e27565b6000610705836109fb565b82106107675760405162461bcd60e51b815260206004820152602b60248201527f455243373231456e756d657261626c653a206f776e657220696e646578206f7560448201526a74206f6620626f756e647360a81b6064820152608401610608565b506001600160a01b03919091166000908152600660209081526040808320938352929052205490565b610798610d4e565b60006107ac600a546001600160a01b031690565b60405190915047906000906001600160a01b0384169083908381818185875af1925050503d80600081146107fc576040519150601f19603f3d011682016040523d82523d6000602084013e610801565b606091505b50509050806106a95760405162461bcd60e51b81526020600482015260146024820152732330b4b632b2103a379039b2b7321022ba3432b960611b6044820152606401610608565b6106a983838360405180602001604052806000815250610ab3565b600061086f60085490565b82106108d25760405162461bcd60e51b815260206004820152602c60248201527f455243373231456e756d657261626c653a20676c6f62616c20696e646578206f60448201526b7574206f6620626f756e647360a01b6064820152608401610608565b600882815481106108e5576108e5611a9c565b90600052602060002001549050919050565b6000818152600260205260408120546001600160a01b0316806104d45760405162461bcd60e51b8152602060048201526018602482015277115490cdcc8c4e881a5b9d985b1a59081d1bdad95b88125160421b6044820152606401610608565b61095f610d4e565b600c5460ff16156109835760405163064e8c0960e11b815260040160405180910390fd5b7f0000000000000000000000000000000000000000000000000000000000000000600d54106109c557604051630e745cd960e21b815260040160405180910390fd5b6001600d60008282546109d89190611ac8565b925050819055506109eb33600d54610f98565b6109f83382600d54610849565b50565b60006001600160a01b038216610a655760405162461bcd60e51b815260206004820152602960248201527f4552433732313a2061646472657373207a65726f206973206e6f7420612076616044820152683634b21037bbb732b960b91b6064820152608401610608565b506001600160a01b031660009081526003602052604090205490565b610a89610d4e565b610a936000610fb2565b565b6060600180546104e990611a14565b610aaf338383611004565b5050565b610abd3383610da8565b610ad95760405162461bcd60e51b815260040161060890611a4f565b610ae5848484846110d3565b50505050565b6000818152600260205260409020546060906001600160a01b0316610b695760405162461bcd60e51b815260206004820152602e60248201527f4552433732314d657461646174613a2055524920717565727920666f72206e6f60448201526d3732bc34b9ba32b7103a37b5b2b760911b6064820152608401610608565b6000610b73611106565b90506000815111610b935760405180602001604052806000815250610bb4565b80604051602001610ba49190611ae0565b6040516020818303038152906040525b9392505050565b610bc3610d4e565b6001600160a01b038116610c285760405162461bcd60e51b815260206004820152602660248201527f4f776e61626c653a206e6577206f776e657220697320746865207a65726f206160448201526564647265737360d01b6064820152608401610608565b6109f881610fb2565b60006001600160e01b031982166380ac58cd60e01b1480610c6257506001600160e01b03198216635b5e139f60e01b145b806104d457506301ffc9a760e01b6001600160e01b03198316146104d4565b6000818152600260205260409020546001600160a01b03166109f85760405162461bcd60e51b8152602060048201526018602482015277115490cdcc8c4e881a5b9d985b1a59081d1bdad95b88125160421b6044820152606401610608565b600081815260046020526040902080546001600160a01b0319166001600160a01b0384169081179091558190610d15826108f7565b6001600160a01b03167f8c5be1e5ebec7d5bd14f71427d1e84f3dd0314c0f7b2291e5b200ac8c7c3b92560405160405180910390a45050565b600a546001600160a01b03163314610a935760405162461bcd60e51b815260206004820181905260248201527f4f776e61626c653a2063616c6c6572206973206e6f7420746865206f776e65726044820152606401610608565b600080610db4836108f7565b9050806001600160a01b0316846001600160a01b03161480610dfb57506001600160a01b0380821660009081526005602090815260408083209388168352929052205460ff165b80610e1f5750836001600160a01b0316610e148461056c565b6001600160a01b0316145b949350505050565b826001600160a01b0316610e3a826108f7565b6001600160a01b031614610e605760405162461bcd60e51b815260040161060890611afc565b6001600160a01b038216610ec25760405162461bcd60e51b8152602060048201526024808201527f4552433732313a207472616e7366657220746f20746865207a65726f206164646044820152637265737360e01b6064820152608401610608565b610ecf8383836001611115565b826001600160a01b0316610ee2826108f7565b6001600160a01b031614610f085760405162461bcd60e51b815260040161060890611afc565b600081815260046020908152604080832080546001600160a01b03199081169091556001600160a01b0387811680865260038552838620805460001901905590871680865283862080546001019055868652600290945282852080549092168417909155905184937fddf252ad1be2c89b69c2b068fc378daa952ba7f163c4a11628f55a4df523b3ef91a4505050565b610aaf828260405180602001604052806000815250611255565b600a80546001600160a01b038381166001600160a01b0319831681179093556040519116919082907f8be0079c531659141344cd1fd0a4f28419497f9722a3daafe3b4186f6b6457e090600090a35050565b816001600160a01b0316836001600160a01b031614156110665760405162461bcd60e51b815260206004820152601960248201527f4552433732313a20617070726f766520746f2063616c6c6572000000000000006044820152606401610608565b6001600160a01b03838116600081815260056020908152604080832094871680845294825291829020805460ff191686151590811790915591519182527f17307eab39ab6107e8899845ad3d59bd9653f200f220920489ca2b5937696c31910160405180910390a3505050565b6110de848484610e27565b6110ea84848484611288565b610ae55760405162461bcd60e51b815260040161060890611b41565b6060600b80546104e990611a14565b61112184848484611395565b60018111156111905760405162461bcd60e51b815260206004820152603560248201527f455243373231456e756d657261626c653a20636f6e7365637574697665207472604482015274185b9cd9995c9cc81b9bdd081cdd5c1c1bdc9d1959605a1b6064820152608401610608565b816001600160a01b0385166111ec576111e781600880546000838152600960205260408120829055600182018355919091527ff3f7a9fe364faab93b216da50a3214154f22a0a2b415b23a84c8169e8b636ee30155565b61120f565b836001600160a01b0316856001600160a01b03161461120f5761120f858261141d565b6001600160a01b03841661122b57611226816114ba565b61124e565b846001600160a01b0316846001600160a01b03161461124e5761124e8482611569565b5050505050565b61125f83836115ad565b61126c6000848484611288565b6106a95760405162461bcd60e51b815260040161060890611b41565b60006001600160a01b0384163b1561138a57604051630a85bd0160e11b81526001600160a01b0385169063150b7a02906112cc903390899088908890600401611b93565b602060405180830381600087803b1580156112e657600080fd5b505af1925050508015611316575060408051601f3d908101601f1916820190925261131391810190611bd0565b60015b611370573d808015611344576040519150601f19603f3d011682016040523d82523d6000602084013e611349565b606091505b5080516113685760405162461bcd60e51b815260040161060890611b41565b805181602001fd5b6001600160e01b031916630a85bd0160e11b149050610e1f565b506001949350505050565b6001811115610ae5576001600160a01b038416156113db576001600160a01b038416600090815260036020526040812080548392906113d5908490611bed565b90915550505b6001600160a01b03831615610ae5576001600160a01b03831660009081526003602052604081208054839290611412908490611ac8565b909155505050505050565b6000600161142a846109fb565b6114349190611bed565b600083815260076020526040902054909150808214611487576001600160a01b03841660009081526006602090815260408083208584528252808320548484528184208190558352600790915290208190555b5060009182526007602090815260408084208490556001600160a01b039094168352600681528383209183525290812055565b6008546000906114cc90600190611bed565b600083815260096020526040812054600880549394509092849081106114f4576114f4611a9c565b90600052602060002001549050806008838154811061151557611515611a9c565b600091825260208083209091019290925582815260099091526040808220849055858252812055600880548061154d5761154d611c04565b6001900381819060005260206000200160009055905550505050565b6000611574836109fb565b6001600160a01b039093166000908152600660209081526040808320868452825280832085905593825260079052919091209190915550565b6001600160a01b0382166116035760405162461bcd60e51b815260206004820181905260248201527f4552433732313a206d696e7420746f20746865207a65726f20616464726573736044820152606401610608565b6000818152600260205260409020546001600160a01b0316156116685760405162461bcd60e51b815260206004820152601c60248201527f4552433732313a20746f6b656e20616c7265616479206d696e746564000000006044820152606401610608565b611676600083836001611115565b6000818152600260205260409020546001600160a01b0316156116db5760405162461bcd60e51b815260206004820152601c60248201527f4552433732313a20746f6b656e20616c7265616479206d696e746564000000006044820152606401610608565b6001600160a01b038216600081815260036020908152604080832080546001019055848352600290915280822080546001600160a01b0319168417905551839291907fddf252ad1be2c89b69c2b068fc378daa952ba7f163c4a11628f55a4df523b3ef908290a45050565b6001600160e01b0319811681146109f857600080fd5b60006020828403121561176e57600080fd5b8135610bb481611746565b60005b8381101561179457818101518382015260200161177c565b83811115610ae55750506000910152565b600081518084526117bd816020860160208601611779565b601f01601f19169290920160200192915050565b602081526000610bb460208301846117a5565b6000602082840312156117f657600080fd5b5035919050565b80356001600160a01b038116811461181457600080fd5b919050565b6000806040838503121561182c57600080fd5b611835836117fd565b946020939093013593505050565b8035801515811461181457600080fd5b60006020828403121561186557600080fd5b610bb482611843565b60008060006060848603121561188357600080fd5b61188c846117fd565b925061189a602085016117fd565b9150604084013590509250925092565b6000602082840312156118bc57600080fd5b610bb4826117fd565b600080604083850312156118d857600080fd5b6118e1836117fd565b91506118ef60208401611843565b90509250929050565b634e487b7160e01b600052604160045260246000fd5b6000806000806080858703121561192457600080fd5b61192d856117fd565b935061193b602086016117fd565b925060408501359150606085013567ffffffffffffffff8082111561195f57600080fd5b818701915087601f83011261197357600080fd5b813581811115611985576119856118f8565b604051601f8201601f19908116603f011681019083821181831017156119ad576119ad6118f8565b816040528281528a60208487010111156119c657600080fd5b82602086016020830137600060208483010152809550505050505092959194509250565b600080604083850312156119fd57600080fd5b611a06836117fd565b91506118ef602084016117fd565b600181811c90821680611a2857607f821691505b60208210811415611a4957634e487b7160e01b600052602260045260246000fd5b50919050565b6020808252602d908201527f4552433732313a2063616c6c6572206973206e6f7420746f6b656e206f776e6560408201526c1c881bdc88185c1c1c9bdd9959609a1b606082015260800190565b634e487b7160e01b600052603260045260246000fd5b634e487b7160e01b600052601160045260246000fd5b60008219821115611adb57611adb611ab2565b500190565b60008251611af2818460208701611779565b9190910192915050565b60208082526025908201527f4552433732313a207472616e736665722066726f6d20696e636f72726563742060408201526437bbb732b960d91b606082015260800190565b60208082526032908201527f4552433732313a207472616e7366657220746f206e6f6e20455243373231526560408201527131b2b4bb32b91034b6b83632b6b2b73a32b960711b606082015260800190565b6001600160a01b0385811682528416602082015260408101839052608060608201819052600090611bc6908301846117a5565b9695505050505050565b600060208284031215611be257600080fd5b8151610bb481611746565b600082821015611bff57611bff611ab2565b500390565b634e487b7160e01b600052603160045260246000fdfea2646970667358221220a59a8e3490ce1b91564cd66a87448783f3d7e7ccfe18f4da340f370dcb00b95464736f6c63430008090033",
  "linkReferences": {},
  "deployedLinkReferences": {}
}