{
  "_format": "hh-sol-artifact-1",
  "contractName": "HereticsRaffle",
  "sourceName": "contracts/HereticsRaffle.sol",
  "abi": [
    {
      "inputs": [
        {
          "internalType": "address",
          "name": "vrfCoordinatorV2",
          "type": "address"
        },
        {
          "internalType": "bytes32",
          "name": "gasLane",
          "type": "bytes32"
        },
        {
          "internalType": "uint64",
          "name": "subscriptionId",
          "type": "uint64"
        },
        {
          "internalType": "uint32",
          "name": "callbackGasLimit",
          "type": "uint32"
        },
        {
          "internalType": "uint32",
          "name": "numWords",
          "type": "uint32"
        }
      ],
      "stateMutability": "nonpayable",
      "type": "constructor"
    },
    {
      "inputs": [],
      "name": "HereticsRaffle__NotOpen",
      "type": "error"
    },
    {
      "inputs": [
        {
          "internalType": "address",
          "name": "",
          "type": "address"
        }
      ],
      "name": "HereticsRaffle__NotWallet",
      "type": "error"
    },
    {
      "inputs": [
        {
          "internalType": "address",
          "name": "have",
          "type": "address"
        },
        {
          "internalType": "address",
          "name": "want",
          "type": "address"
        }
      ],
      "name": "OnlyCoordinatorCanFulfill",
      "type": "error"
    },
    {
      "anonymous": false,
      "inputs": [
        {
          "indexed": false,
          "internalType": "address",
          "name": "player",
          "type": "address"
        }
      ],
      "name": "EnterRaffle",
      "type": "event"
    },
    {
      "anonymous": false,
      "inputs": [
        {
          "indexed": true,
          "internalType": "uint256",
          "name": "requestId",
          "type": "uint256"
        }
      ],
      "name": "GetWinner",
      "type": "event"
    },
    {
      "anonymous": false,
      "inputs": [
        {
          "indexed": true,
          "internalType": "address",
          "name": "previousOwner",
          "type": "address"
        },
        {
          "indexed": true,
          "internalType": "address",
          "name": "newOwner",
          "type": "address"
        }
      ],
      "name": "OwnershipTransferred",
      "type": "event"
    },
    {
      "anonymous": false,
      "inputs": [],
      "name": "RaffleOpen",
      "type": "event"
    },
    {
      "anonymous": false,
      "inputs": [
        {
          "indexed": false,
          "internalType": "address",
          "name": "winner",
          "type": "address"
        }
      ],
      "name": "WinnersSelected",
      "type": "event"
    },
    {
      "inputs": [],
      "name": "endRaffle",
      "outputs": [],
      "stateMutability": "nonpayable",
      "type": "function"
    },
    {
      "inputs": [
        {
          "internalType": "address",
          "name": "player",
          "type": "address"
        }
      ],
      "name": "enterToRaffle",
      "outputs": [],
      "stateMutability": "nonpayable",
      "type": "function"
    },
    {
      "inputs": [],
      "name": "getWinner",
      "outputs": [
        {
          "internalType": "address",
          "name": "winner",
          "type": "address"
        }
      ],
      "stateMutability": "view",
      "type": "function"
    },
    {
      "inputs": [],
      "name": "openRaffle",
      "outputs": [],
      "stateMutability": "nonpayable",
      "type": "function"
    },
    {
      "inputs": [],
      "name": "owner",
      "outputs": [
        {
          "internalType": "address",
          "name": "",
          "type": "address"
        }
      ],
      "stateMutability": "view",
      "type": "function"
    },
    {
      "inputs": [
        {
          "internalType": "uint256",
          "name": "requestId",
          "type": "uint256"
        },
        {
          "internalType": "uint256[]",
          "name": "randomWords",
          "type": "uint256[]"
        }
      ],
      "name": "rawFulfillRandomWords",
      "outputs": [],
      "stateMutability": "nonpayable",
      "type": "function"
    },
    {
      "inputs": [],
      "name": "renounceOwnership",
      "outputs": [],
      "stateMutability": "nonpayable",
      "type": "function"
    },
    {
      "inputs": [
        {
          "internalType": "uint256",
          "name": "",
          "type": "uint256"
        }
      ],
      "name": "s_players",
      "outputs": [
        {
          "internalType": "address",
          "name": "",
          "type": "address"
        }
      ],
      "stateMutability": "view",
      "type": "function"
    },
    {
      "inputs": [],
      "name": "s_winner",
      "outputs": [
        {
          "internalType": "address",
          "name": "",
          "type": "address"
        }
      ],
      "stateMutability": "view",
      "type": "function"
    },
    {
      "inputs": [
        {
          "internalType": "address",
          "name": "newOwner",
          "type": "address"
        }
      ],
      "name": "transferOwnership",
      "outputs": [],
      "stateMutability": "nonpayable",
      "type": "function"
    }
  ],
  "bytecode": "0x61014060405234801561001157600080fd5b50604051610aff380380610aff833981016040819052610030916100e0565b8461003a33610077565b6001600160a01b039081166080529490941660a052610100929092526001600160401b031660c05263ffffffff90811660e052166101205261015b565b600080546001600160a01b038381166001600160a01b0319831681178455604051919092169283917f8be0079c531659141344cd1fd0a4f28419497f9722a3daafe3b4186f6b6457e09190a35050565b805163ffffffff811681146100db57600080fd5b919050565b600080600080600060a086880312156100f857600080fd5b85516001600160a01b038116811461010f57600080fd5b6020870151604088015191965094506001600160401b038116811461013357600080fd5b9250610141606087016100c7565b915061014f608087016100c7565b90509295509295909350565b60805160a05160c05160e051610100516101205161094e6101b16000396000610344015260006102b90152600061031c015260006102e80152600061036e01526000818161016501526101a7015261094e6000f3fe608060405234801561001057600080fd5b506004361061009e5760003560e01c8063ae771f6b11610066578063ae771f6b14610111578063b4ba7d3614610124578063ee095c0e1461012c578063f2fde38b14610134578063f6ac6e3c1461014757600080fd5b80631fe543e3146100a35780633dc452e1146100b8578063715018a6146100e75780638da5cb5b146100ef5780638e7ea5b214610100575b600080fd5b6100b66100b13660046107b4565b61015a565b005b6003546100cb906001600160a01b031681565b6040516001600160a01b03909116815260200160405180910390f35b6100b66101e7565b6000546001600160a01b03166100cb565b6003546001600160a01b03166100cb565b6100cb61011f36600461087e565b6101fb565b6100b6610225565b6100b661026b565b6100b6610142366004610897565b610423565b6100b6610155366004610897565b61049c565b336001600160a01b037f000000000000000000000000000000000000000000000000000000000000000016146101d95760405163073e64fd60e21b81523360048201526001600160a01b037f00000000000000000000000000000000000000000000000000000000000000001660248201526044015b60405180910390fd5b6101e38282610586565b5050565b6101ef61067a565b6101f960006106d4565b565b6002818154811061020b57600080fd5b6000918252602090912001546001600160a01b0316905081565b61022d61067a565b6003805460ff60a01b1916600160a01b1790556040517ffedb182cede0dff52950391c340cc6b2dd57c388bd306790c6920ddabcbf775c90600090a1565b61027361067a565b600354600160a01b900460ff1661029d57604051635007550560e11b815260040160405180910390fd5b6003805460ff60a01b191681556040516305d3b1d360e41b81527f0000000000000000000000000000000000000000000000000000000000000000600482015267ffffffffffffffff7f0000000000000000000000000000000000000000000000000000000000000000166024820152604481019190915263ffffffff7f0000000000000000000000000000000000000000000000000000000000000000811660648301527f00000000000000000000000000000000000000000000000000000000000000001660848201526000907f00000000000000000000000000000000000000000000000000000000000000006001600160a01b031690635d3b1d309060a401602060405180830381600087803b1580156103ba57600080fd5b505af11580156103ce573d6000803e3d6000fd5b505050506040513d601f19601f820116820180604052508101906103f291906108c7565b60405190915081907f1422a2b6a669445079b1a9a13672c31c852df74b9a9d0a45fef537e63b70722b90600090a250565b61042b61067a565b6001600160a01b0381166104905760405162461bcd60e51b815260206004820152602660248201527f4f776e61626c653a206e6577206f776e657220697320746865207a65726f206160448201526564647265737360d01b60648201526084016101d0565b610499816106d4565b50565b6104a461067a565b600354600160a01b900460ff166104ce57604051635007550560e11b815260040160405180910390fd5b6001600160a01b0381163b1561050257604051633fd7cbc360e01b81526001600160a01b03821660048201526024016101d0565b600280546001810182556000919091527f405787fa12a823e0f2b7631cc41b3ba8828b3321ca811111fa75cd3aa3bb5ace0180546001600160a01b0319166001600160a01b0383169081179091556040519081527fcab710fdc8e0bd0efd87f0f4abe4db93e7843e8582616adc7bdd505ed2ef0ad29060200160405180910390a150565b6000600280549050826000815181106105a1576105a16108e0565b60200260200101516105b391906108f6565b90506000600282815481106105ca576105ca6108e0565b6000918252602082200154600380546001600160a01b0319166001600160a01b039092169182179055915060405190808252806020026020018201604052801561061e578160200160208202803683370190505b50805161063391600291602090910190610724565b506003546040516001600160a01b0390911681527f5550d46cfe9a00f98f1c52769eb9cc77be63437bd42c74f0566e6ab7a54192db9060200160405180910390a150505050565b6000546001600160a01b031633146101f95760405162461bcd60e51b815260206004820181905260248201527f4f776e61626c653a2063616c6c6572206973206e6f7420746865206f776e657260448201526064016101d0565b600080546001600160a01b038381166001600160a01b0319831681178455604051919092169283917f8be0079c531659141344cd1fd0a4f28419497f9722a3daafe3b4186f6b6457e09190a35050565b828054828255906000526020600020908101928215610779579160200282015b8281111561077957825182546001600160a01b0319166001600160a01b03909116178255602090920191600190910190610744565b50610785929150610789565b5090565b5b80821115610785576000815560010161078a565b634e487b7160e01b600052604160045260246000fd5b600080604083850312156107c757600080fd5b8235915060208084013567ffffffffffffffff808211156107e757600080fd5b818601915086601f8301126107fb57600080fd5b81358181111561080d5761080d61079e565b8060051b604051601f19603f830116810181811085821117156108325761083261079e565b60405291825284820192508381018501918983111561085057600080fd5b938501935b8285101561086e57843584529385019392850192610855565b8096505050505050509250929050565b60006020828403121561089057600080fd5b5035919050565b6000602082840312156108a957600080fd5b81356001600160a01b03811681146108c057600080fd5b9392505050565b6000602082840312156108d957600080fd5b5051919050565b634e487b7160e01b600052603260045260246000fd5b60008261091357634e487b7160e01b600052601260045260246000fd5b50069056fea2646970667358221220f7e12ffeb63751b66423b4d5b0e86c20732f9173a8849ccc2a9f0317e3f86cb264736f6c63430008090033",
  "linkReferences": {},
  "deployedLinkReferences": {}
}