{"contracts/HereticsRaffle.sol":{"HereticsRaffle":{"abi":[{"inputs":[{"internalType":"address","name":"vrfCoordinatorV2","type":"address"},{"internalType":"bytes32","name":"gasLane","type":"bytes32"},{"internalType":"uint64","name":"subscriptionId","type":"uint64"},{"internalType":"uint32","name":"callbackGasLimit","type":"uint32"},{"internalType":"uint32","name":"numWords","type":"uint32"}],"stateMutability":"nonpayable","type":"constructor"},{"inputs":[],"name":"HereticsRaffle__NotOpen","type":"error"},{"inputs":[{"internalType":"address","name":"","type":"address"}],"name":"HereticsRaffle__NotWallet","type":"error"},{"inputs":[{"internalType":"address","name":"have","type":"address"},{"internalType":"address","name":"want","type":"address"}],"name":"OnlyCoordinatorCanFulfill","type":"error"},{"anonymous":false,"inputs":[{"indexed":false,"internalType":"address","name":"player","type":"address"}],"name":"EnterRaffle","type":"event"},{"anonymous":false,"inputs":[{"indexed":true,"internalType":"uint256","name":"requestId","type":"uint256"}],"name":"GetWinner","type":"event"},{"anonymous":false,"inputs":[{"indexed":true,"internalType":"address","name":"previousOwner","type":"address"},{"indexed":true,"internalType":"address","name":"newOwner","type":"address"}],"name":"OwnershipTransferred","type":"event"},{"anonymous":false,"inputs":[],"name":"RaffleOpen","type":"event"},{"anonymous":false,"inputs":[{"indexed":false,"internalType":"address","name":"winner","type":"address"}],"name":"WinnersSelected","type":"event"},{"inputs":[],"name":"endRaffle","outputs":[],"stateMutability":"nonpayable","type":"function"},{"inputs":[{"internalType":"address","name":"player","type":"address"}],"name":"enterToRaffle","outputs":[],"stateMutability":"nonpayable","type":"function"},{"inputs":[],"name":"getWinner","outputs":[{"internalType":"address","name":"winner","type":"address"}],"stateMutability":"view","type":"function"},{"inputs":[],"name":"openRaffle","outputs":[],"stateMutability":"nonpayable","type":"function"},{"inputs":[],"name":"owner","outputs":[{"internalType":"address","name":"","type":"address"}],"stateMutability":"view","type":"function"},{"inputs":[{"internalType":"uint256","name":"requestId","type":"uint256"},{"internalType":"uint256[]","name":"randomWords","type":"uint256[]"}],"name":"rawFulfillRandomWords","outputs":[],"stateMutability":"nonpayable","type":"function"},{"inputs":[],"name":"renounceOwnership","outputs":[],"stateMutability":"nonpayable","type":"function"},{"inputs":[{"internalType":"uint256","name":"","type":"uint256"}],"name":"s_players","outputs":[{"internalType":"address","name":"","type":"address"}],"stateMutability":"view","type":"function"},{"inputs":[{"internalType":"uint256","name":"","type":"uint256"}],"name":"s_winners","outputs":[{"internalType":"address","name":"","type":"address"}],"stateMutability":"view","type":"function"},{"inputs":[{"internalType":"address","name":"newOwner","type":"address"}],"name":"transferOwnership","outputs":[],"stateMutability":"nonpayable","type":"function"}],"devdoc":{"author":"Beep Bop Beep Team","details":"This contract uses Chainlink VRF for getting a random winner","kind":"dev","methods":{"enterToRaffle(address)":{"params":{"player":"is the wallet address of the player."}},"owner()":{"details":"Returns the address of the current owner."},"renounceOwnership()":{"details":"Leaves the contract without owner. It will not be possible to call `onlyOwner` functions anymore. Can only be called by the current owner. NOTE: Renouncing ownership will leave the contract without an owner, thereby removing any functionality that is only available to the owner."},"transferOwnership(address)":{"details":"Transfers ownership of the contract to a new account (`newOwner`). Can only be called by the current owner."}},"title":"Heretics Raffle for Binance X Heretics Hackathon","version":1},"evm":{"bytecode":{"linkReferences":{},"object":"61014060405234801561001157600080fd5b50604051610cac380380610cac833981016040819052610030916100e0565b8461003a33610077565b6001600160a01b039081166080529490941660a052610100929092526001600160401b031660c05263ffffffff90811660e052166101205261015b565b600080546001600160a01b038381166001600160a01b0319831681178455604051919092169283917f8be0079c531659141344cd1fd0a4f28419497f9722a3daafe3b4186f6b6457e09190a35050565b805163ffffffff811681146100db57600080fd5b919050565b600080600080600060a086880312156100f857600080fd5b85516001600160a01b038116811461010f57600080fd5b6020870151604088015191965094506001600160401b038116811461013357600080fd5b9250610141606087016100c7565b915061014f608087016100c7565b90509295509295909350565b60805160a05160c05160e0516101005161012051610af46101b86000396000818161038801526105c8015260006102fe015260006103600152600061032d015260006103b201526000818161015c015261019e0152610af46000f3fe608060405234801561001057600080fd5b506004361061009e5760003560e01c8063ae771f6b11610066578063ae771f6b14610108578063b4ba7d361461011b578063ee095c0e14610123578063f2fde38b1461012b578063f6ac6e3c1461013e57600080fd5b80631fe543e3146100a3578063715018a6146100b8578063756cd579146100c05780638da5cb5b146100ef5780638e7ea5b214610100575b600080fd5b6100b66100b13660046108fa565b610151565b005b6100b66101de565b6100d36100ce3660046109c4565b6101f2565b6040516001600160a01b03909116815260200160405180910390f35b6000546001600160a01b03166100d3565b6100d361021c565b6100d36101163660046109c4565b61024c565b6100b661025c565b6100b66102ba565b6100b66101393660046109dd565b610467565b6100b661014c3660046109dd565b6104e0565b336001600160a01b037f000000000000000000000000000000000000000000000000000000000000000016146101d05760405163073e64fd60e21b81523360048201526001600160a01b037f00000000000000000000000000000000000000000000000000000000000000001660248201526044015b60405180910390fd5b6101da82826105c3565b5050565b6101e66107c0565b6101f0600061081a565b565b6004818154811061020257600080fd5b6000918252602090912001546001600160a01b0316905081565b6000600460008154811061023257610232610a0d565b6000918252602090912001546001600160a01b0316919050565b6003818154811061020257600080fd5b6102646107c0565b60408051600081526020810191829052516102819160049161086a565b506005805460ff191660011790556040517ffedb182cede0dff52950391c340cc6b2dd57c388bd306790c6920ddabcbf775c90600090a1565b6102c26107c0565b60055460ff166102e557604051635007550560e11b815260040160405180910390fd5b6005805460ff191690556040516305d3b1d360e41b81527f0000000000000000000000000000000000000000000000000000000000000000600482015267ffffffffffffffff7f00000000000000000000000000000000000000000000000000000000000000001660248201526003604482015263ffffffff7f0000000000000000000000000000000000000000000000000000000000000000811660648301527f00000000000000000000000000000000000000000000000000000000000000001660848201526000907f00000000000000000000000000000000000000000000000000000000000000006001600160a01b031690635d3b1d309060a401602060405180830381600087803b1580156103fe57600080fd5b505af1158015610412573d6000803e3d6000fd5b505050506040513d601f19601f820116820180604052508101906104369190610a23565b60405190915081907f1422a2b6a669445079b1a9a13672c31c852df74b9a9d0a45fef537e63b70722b90600090a250565b61046f6107c0565b6001600160a01b0381166104d45760405162461bcd60e51b815260206004820152602660248201527f4f776e61626c653a206e6577206f776e657220697320746865207a65726f206160448201526564647265737360d01b60648201526084016101c7565b6104dd8161081a565b50565b6104e86107c0565b60055460ff1661050b57604051635007550560e11b815260040160405180910390fd5b6001600160a01b0381163b1561053f57604051633fd7cbc360e01b81526001600160a01b03821660048201526024016101c7565b600380546001810182556000919091527fc2575a0e9e593c00f959f8c92f12db2869c3395a3b0502d05e2516446f71f85b0180546001600160a01b0319166001600160a01b0383169081179091556040519081527fcab710fdc8e0bd0efd87f0f4abe4db93e7843e8582616adc7bdd505ed2ef0ad29060200160405180910390a150565b60005b7f000000000000000000000000000000000000000000000000000000000000000063ffffffff1681101561074257600060038054905083838151811061060e5761060e610a0d565b60200260200101516106209190610a3c565b905060006003828154811061063757610637610a0d565b60009182526020808320909101546001600160a01b0316808352600290915260409091205490915060ff16801561067057506003546001105b156106cb576000821161069057610688600183610a74565b91508161069f565b61069b600183610a8c565b9150815b50600382815481106106b3576106b3610a0d565b6000918252602090912001546001600160a01b031690505b6001600160a01b03166000818152600260205260408120805460ff191660019081179091556004805491820181559091527f8a35acfbc15ff81a39ae7d344fd709f28e8600b4aa8c65c6b64bfe7fe36bd19b0180546001600160a01b0319169091179055508061073a81610aa3565b9150506105c6565b5060408051600081526020810191829052516107609160039161086a565b507f5550d46cfe9a00f98f1c52769eb9cc77be63437bd42c74f0566e6ab7a54192db600460008154811061079657610796610a0d565b600091825260209182902001546040516001600160a01b0390911681520160405180910390a15050565b6000546001600160a01b031633146101f05760405162461bcd60e51b815260206004820181905260248201527f4f776e61626c653a2063616c6c6572206973206e6f7420746865206f776e657260448201526064016101c7565b600080546001600160a01b038381166001600160a01b0319831681178455604051919092169283917f8be0079c531659141344cd1fd0a4f28419497f9722a3daafe3b4186f6b6457e09190a35050565b8280548282559060005260206000209081019282156108bf579160200282015b828111156108bf57825182546001600160a01b0319166001600160a01b0390911617825560209092019160019091019061088a565b506108cb9291506108cf565b5090565b5b808211156108cb57600081556001016108d0565b634e487b7160e01b600052604160045260246000fd5b6000806040838503121561090d57600080fd5b8235915060208084013567ffffffffffffffff8082111561092d57600080fd5b818601915086601f83011261094157600080fd5b813581811115610953576109536108e4565b8060051b604051601f19603f83011681018181108582111715610978576109786108e4565b60405291825284820192508381018501918983111561099657600080fd5b938501935b828510156109b45784358452938501939285019261099b565b8096505050505050509250929050565b6000602082840312156109d657600080fd5b5035919050565b6000602082840312156109ef57600080fd5b81356001600160a01b0381168114610a0657600080fd5b9392505050565b634e487b7160e01b600052603260045260246000fd5b600060208284031215610a3557600080fd5b5051919050565b600082610a5957634e487b7160e01b600052601260045260246000fd5b500690565b634e487b7160e01b600052601160045260246000fd5b60008219821115610a8757610a87610a5e565b500190565b600082821015610a9e57610a9e610a5e565b500390565b6000600019821415610ab757610ab7610a5e565b506001019056fea264697066735822122008f1f3afaecdd16d39c33f08fd6b631a11c45e19b7b8ce5039bcd6988b18839a64736f6c63430008090033","opcodes":"PUSH2 0x140 PUSH1 0x40 MSTORE CALLVALUE DUP1 ISZERO PUSH2 0x11 JUMPI PUSH1 0x0 DUP1 REVERT JUMPDEST POP PUSH1 0x40 MLOAD PUSH2 0xCAC CODESIZE SUB DUP1 PUSH2 0xCAC DUP4 CODECOPY DUP2 ADD PUSH1 0x40 DUP2 SWAP1 MSTORE PUSH2 0x30 SWAP2 PUSH2 0xE0 JUMP JUMPDEST DUP5 PUSH2 0x3A CALLER PUSH2 0x77 JUMP JUMPDEST PUSH1 0x1 PUSH1 0x1 PUSH1 0xA0 SHL SUB SWAP1 DUP2 AND PUSH1 0x80 MSTORE SWAP5 SWAP1 SWAP5 AND PUSH1 0xA0 MSTORE PUSH2 0x100 SWAP3 SWAP1 SWAP3 MSTORE PUSH1 0x1 PUSH1 0x1 PUSH1 0x40 SHL SUB AND PUSH1 0xC0 MSTORE PUSH4 0xFFFFFFFF SWAP1 DUP2 AND PUSH1 0xE0 MSTORE AND PUSH2 0x120 MSTORE PUSH2 0x15B JUMP JUMPDEST PUSH1 0x0 DUP1 SLOAD PUSH1 0x1 PUSH1 0x1 PUSH1 0xA0 SHL SUB DUP4 DUP2 AND PUSH1 0x1 PUSH1 0x1 PUSH1 0xA0 SHL SUB NOT DUP4 AND DUP2 OR DUP5 SSTORE PUSH1 0x40 MLOAD SWAP2 SWAP1 SWAP3 AND SWAP3 DUP4 SWAP2 PUSH32 0x8BE0079C531659141344CD1FD0A4F28419497F9722A3DAAFE3B4186F6B6457E0 SWAP2 SWAP1 LOG3 POP POP JUMP JUMPDEST DUP1 MLOAD PUSH4 0xFFFFFFFF DUP2 AND DUP2 EQ PUSH2 0xDB JUMPI PUSH1 0x0 DUP1 REVERT JUMPDEST SWAP2 SWAP1 POP JUMP JUMPDEST PUSH1 0x0 DUP1 PUSH1 0x0 DUP1 PUSH1 0x0 PUSH1 0xA0 DUP7 DUP9 SUB SLT ISZERO PUSH2 0xF8 JUMPI PUSH1 0x0 DUP1 REVERT JUMPDEST DUP6 MLOAD PUSH1 0x1 PUSH1 0x1 PUSH1 0xA0 SHL SUB DUP2 AND DUP2 EQ PUSH2 0x10F JUMPI PUSH1 0x0 DUP1 REVERT JUMPDEST PUSH1 0x20 DUP8 ADD MLOAD PUSH1 0x40 DUP9 ADD MLOAD SWAP2 SWAP7 POP SWAP5 POP PUSH1 0x1 PUSH1 0x1 PUSH1 0x40 SHL SUB DUP2 AND DUP2 EQ PUSH2 0x133 JUMPI PUSH1 0x0 DUP1 REVERT JUMPDEST SWAP3 POP PUSH2 0x141 PUSH1 0x60 DUP8 ADD PUSH2 0xC7 JUMP JUMPDEST SWAP2 POP PUSH2 0x14F PUSH1 0x80 DUP8 ADD PUSH2 0xC7 JUMP JUMPDEST SWAP1 POP SWAP3 SWAP6 POP SWAP3 SWAP6 SWAP1 SWAP4 POP JUMP JUMPDEST PUSH1 0x80 MLOAD PUSH1 0xA0 MLOAD PUSH1 0xC0 MLOAD PUSH1 0xE0 MLOAD PUSH2 0x100 MLOAD PUSH2 0x120 MLOAD PUSH2 0xAF4 PUSH2 0x1B8 PUSH1 0x0 CODECOPY PUSH1 0x0 DUP2 DUP2 PUSH2 0x388 ADD MSTORE PUSH2 0x5C8 ADD MSTORE PUSH1 0x0 PUSH2 0x2FE ADD MSTORE PUSH1 0x0 PUSH2 0x360 ADD MSTORE PUSH1 0x0 PUSH2 0x32D ADD MSTORE PUSH1 0x0 PUSH2 0x3B2 ADD MSTORE PUSH1 0x0 DUP2 DUP2 PUSH2 0x15C ADD MSTORE PUSH2 0x19E ADD MSTORE PUSH2 0xAF4 PUSH1 0x0 RETURN INVALID PUSH1 0x80 PUSH1 0x40 MSTORE CALLVALUE DUP1 ISZERO PUSH2 0x10 JUMPI PUSH1 0x0 DUP1 REVERT JUMPDEST POP PUSH1 0x4 CALLDATASIZE LT PUSH2 0x9E JUMPI PUSH1 0x0 CALLDATALOAD PUSH1 0xE0 SHR DUP1 PUSH4 0xAE771F6B GT PUSH2 0x66 JUMPI DUP1 PUSH4 0xAE771F6B EQ PUSH2 0x108 JUMPI DUP1 PUSH4 0xB4BA7D36 EQ PUSH2 0x11B JUMPI DUP1 PUSH4 0xEE095C0E EQ PUSH2 0x123 JUMPI DUP1 PUSH4 0xF2FDE38B EQ PUSH2 0x12B JUMPI DUP1 PUSH4 0xF6AC6E3C EQ PUSH2 0x13E JUMPI PUSH1 0x0 DUP1 REVERT JUMPDEST DUP1 PUSH4 0x1FE543E3 EQ PUSH2 0xA3 JUMPI DUP1 PUSH4 0x715018A6 EQ PUSH2 0xB8 JUMPI DUP1 PUSH4 0x756CD579 EQ PUSH2 0xC0 JUMPI DUP1 PUSH4 0x8DA5CB5B EQ PUSH2 0xEF JUMPI DUP1 PUSH4 0x8E7EA5B2 EQ PUSH2 0x100 JUMPI JUMPDEST PUSH1 0x0 DUP1 REVERT JUMPDEST PUSH2 0xB6 PUSH2 0xB1 CALLDATASIZE PUSH1 0x4 PUSH2 0x8FA JUMP JUMPDEST PUSH2 0x151 JUMP JUMPDEST STOP JUMPDEST PUSH2 0xB6 PUSH2 0x1DE JUMP JUMPDEST PUSH2 0xD3 PUSH2 0xCE CALLDATASIZE PUSH1 0x4 PUSH2 0x9C4 JUMP JUMPDEST PUSH2 0x1F2 JUMP JUMPDEST PUSH1 0x40 MLOAD PUSH1 0x1 PUSH1 0x1 PUSH1 0xA0 SHL SUB SWAP1 SWAP2 AND DUP2 MSTORE PUSH1 0x20 ADD PUSH1 0x40 MLOAD DUP1 SWAP2 SUB SWAP1 RETURN JUMPDEST PUSH1 0x0 SLOAD PUSH1 0x1 PUSH1 0x1 PUSH1 0xA0 SHL SUB AND PUSH2 0xD3 JUMP JUMPDEST PUSH2 0xD3 PUSH2 0x21C JUMP JUMPDEST PUSH2 0xD3 PUSH2 0x116 CALLDATASIZE PUSH1 0x4 PUSH2 0x9C4 JUMP JUMPDEST PUSH2 0x24C JUMP JUMPDEST PUSH2 0xB6 PUSH2 0x25C JUMP JUMPDEST PUSH2 0xB6 PUSH2 0x2BA JUMP JUMPDEST PUSH2 0xB6 PUSH2 0x139 CALLDATASIZE PUSH1 0x4 PUSH2 0x9DD JUMP JUMPDEST PUSH2 0x467 JUMP JUMPDEST PUSH2 0xB6 PUSH2 0x14C CALLDATASIZE PUSH1 0x4 PUSH2 0x9DD JUMP JUMPDEST PUSH2 0x4E0 JUMP JUMPDEST CALLER PUSH1 0x1 PUSH1 0x1 PUSH1 0xA0 SHL SUB PUSH32 0x0 AND EQ PUSH2 0x1D0 JUMPI PUSH1 0x40 MLOAD PUSH4 0x73E64FD PUSH1 0xE2 SHL DUP2 MSTORE CALLER PUSH1 0x4 DUP3 ADD MSTORE PUSH1 0x1 PUSH1 0x1 PUSH1 0xA0 SHL SUB PUSH32 0x0 AND PUSH1 0x24 DUP3 ADD MSTORE PUSH1 0x44 ADD JUMPDEST PUSH1 0x40 MLOAD DUP1 SWAP2 SUB SWAP1 REVERT JUMPDEST PUSH2 0x1DA DUP3 DUP3 PUSH2 0x5C3 JUMP JUMPDEST POP POP JUMP JUMPDEST PUSH2 0x1E6 PUSH2 0x7C0 JUMP JUMPDEST PUSH2 0x1F0 PUSH1 0x0 PUSH2 0x81A JUMP JUMPDEST JUMP JUMPDEST PUSH1 0x4 DUP2 DUP2 SLOAD DUP2 LT PUSH2 0x202 JUMPI PUSH1 0x0 DUP1 REVERT JUMPDEST PUSH1 0x0 SWAP2 DUP3 MSTORE PUSH1 0x20 SWAP1 SWAP2 KECCAK256 ADD SLOAD PUSH1 0x1 PUSH1 0x1 PUSH1 0xA0 SHL SUB AND SWAP1 POP DUP2 JUMP JUMPDEST PUSH1 0x0 PUSH1 0x4 PUSH1 0x0 DUP2 SLOAD DUP2 LT PUSH2 0x232 JUMPI PUSH2 0x232 PUSH2 0xA0D JUMP JUMPDEST PUSH1 0x0 SWAP2 DUP3 MSTORE PUSH1 0x20 SWAP1 SWAP2 KECCAK256 ADD SLOAD PUSH1 0x1 PUSH1 0x1 PUSH1 0xA0 SHL SUB AND SWAP2 SWAP1 POP JUMP JUMPDEST PUSH1 0x3 DUP2 DUP2 SLOAD DUP2 LT PUSH2 0x202 JUMPI PUSH1 0x0 DUP1 REVERT JUMPDEST PUSH2 0x264 PUSH2 0x7C0 JUMP JUMPDEST PUSH1 0x40 DUP1 MLOAD PUSH1 0x0 DUP2 MSTORE PUSH1 0x20 DUP2 ADD SWAP2 DUP3 SWAP1 MSTORE MLOAD PUSH2 0x281 SWAP2 PUSH1 0x4 SWAP2 PUSH2 0x86A JUMP JUMPDEST POP PUSH1 0x5 DUP1 SLOAD PUSH1 0xFF NOT AND PUSH1 0x1 OR SWAP1 SSTORE PUSH1 0x40 MLOAD PUSH32 0xFEDB182CEDE0DFF52950391C340CC6B2DD57C388BD306790C6920DDABCBF775C SWAP1 PUSH1 0x0 SWAP1 LOG1 JUMP JUMPDEST PUSH2 0x2C2 PUSH2 0x7C0 JUMP JUMPDEST PUSH1 0x5 SLOAD PUSH1 0xFF AND PUSH2 0x2E5 JUMPI PUSH1 0x40 MLOAD PUSH4 0x50075505 PUSH1 0xE1 SHL DUP2 MSTORE PUSH1 0x4 ADD PUSH1 0x40 MLOAD DUP1 SWAP2 SUB SWAP1 REVERT JUMPDEST PUSH1 0x5 DUP1 SLOAD PUSH1 0xFF NOT AND SWAP1 SSTORE PUSH1 0x40 MLOAD PUSH4 0x5D3B1D3 PUSH1 0xE4 SHL DUP2 MSTORE PUSH32 0x0 PUSH1 0x4 DUP3 ADD MSTORE PUSH8 0xFFFFFFFFFFFFFFFF PUSH32 0x0 AND PUSH1 0x24 DUP3 ADD MSTORE PUSH1 0x3 PUSH1 0x44 DUP3 ADD MSTORE PUSH4 0xFFFFFFFF PUSH32 0x0 DUP2 AND PUSH1 0x64 DUP4 ADD MSTORE PUSH32 0x0 AND PUSH1 0x84 DUP3 ADD MSTORE PUSH1 0x0 SWAP1 PUSH32 0x0 PUSH1 0x1 PUSH1 0x1 PUSH1 0xA0 SHL SUB AND SWAP1 PUSH4 0x5D3B1D30 SWAP1 PUSH1 0xA4 ADD PUSH1 0x20 PUSH1 0x40 MLOAD DUP1 DUP4 SUB DUP2 PUSH1 0x0 DUP8 DUP1 EXTCODESIZE ISZERO DUP1 ISZERO PUSH2 0x3FE JUMPI PUSH1 0x0 DUP1 REVERT JUMPDEST POP GAS CALL ISZERO DUP1 ISZERO PUSH2 0x412 JUMPI RETURNDATASIZE PUSH1 0x0 DUP1 RETURNDATACOPY RETURNDATASIZE PUSH1 0x0 REVERT JUMPDEST POP POP POP POP PUSH1 0x40 MLOAD RETURNDATASIZE PUSH1 0x1F NOT PUSH1 0x1F DUP3 ADD AND DUP3 ADD DUP1 PUSH1 0x40 MSTORE POP DUP2 ADD SWAP1 PUSH2 0x436 SWAP2 SWAP1 PUSH2 0xA23 JUMP JUMPDEST PUSH1 0x40 MLOAD SWAP1 SWAP2 POP DUP2 SWAP1 PUSH32 0x1422A2B6A669445079B1A9A13672C31C852DF74B9A9D0A45FEF537E63B70722B SWAP1 PUSH1 0x0 SWAP1 LOG2 POP JUMP JUMPDEST PUSH2 0x46F PUSH2 0x7C0 JUMP JUMPDEST PUSH1 0x1 PUSH1 0x1 PUSH1 0xA0 SHL SUB DUP2 AND PUSH2 0x4D4 JUMPI PUSH1 0x40 MLOAD PUSH3 0x461BCD PUSH1 0xE5 SHL DUP2 MSTORE PUSH1 0x20 PUSH1 0x4 DUP3 ADD MSTORE PUSH1 0x26 PUSH1 0x24 DUP3 ADD MSTORE PUSH32 0x4F776E61626C653A206E6577206F776E657220697320746865207A65726F2061 PUSH1 0x44 DUP3 ADD MSTORE PUSH6 0x646472657373 PUSH1 0xD0 SHL PUSH1 0x64 DUP3 ADD MSTORE PUSH1 0x84 ADD PUSH2 0x1C7 JUMP JUMPDEST PUSH2 0x4DD DUP2 PUSH2 0x81A JUMP JUMPDEST POP JUMP JUMPDEST PUSH2 0x4E8 PUSH2 0x7C0 JUMP JUMPDEST PUSH1 0x5 SLOAD PUSH1 0xFF AND PUSH2 0x50B JUMPI PUSH1 0x40 MLOAD PUSH4 0x50075505 PUSH1 0xE1 SHL DUP2 MSTORE PUSH1 0x4 ADD PUSH1 0x40 MLOAD DUP1 SWAP2 SUB SWAP1 REVERT JUMPDEST PUSH1 0x1 PUSH1 0x1 PUSH1 0xA0 SHL SUB DUP2 AND EXTCODESIZE ISZERO PUSH2 0x53F JUMPI PUSH1 0x40 MLOAD PUSH4 0x3FD7CBC3 PUSH1 0xE0 SHL DUP2 MSTORE PUSH1 0x1 PUSH1 0x1 PUSH1 0xA0 SHL SUB DUP3 AND PUSH1 0x4 DUP3 ADD MSTORE PUSH1 0x24 ADD PUSH2 0x1C7 JUMP JUMPDEST PUSH1 0x3 DUP1 SLOAD PUSH1 0x1 DUP2 ADD DUP3 SSTORE PUSH1 0x0 SWAP2 SWAP1 SWAP2 MSTORE PUSH32 0xC2575A0E9E593C00F959F8C92F12DB2869C3395A3B0502D05E2516446F71F85B ADD DUP1 SLOAD PUSH1 0x1 PUSH1 0x1 PUSH1 0xA0 SHL SUB NOT AND PUSH1 0x1 PUSH1 0x1 PUSH1 0xA0 SHL SUB DUP4 AND SWAP1 DUP2 OR SWAP1 SWAP2 SSTORE PUSH1 0x40 MLOAD SWAP1 DUP2 MSTORE PUSH32 0xCAB710FDC8E0BD0EFD87F0F4ABE4DB93E7843E8582616ADC7BDD505ED2EF0AD2 SWAP1 PUSH1 0x20 ADD PUSH1 0x40 MLOAD DUP1 SWAP2 SUB SWAP1 LOG1 POP JUMP JUMPDEST PUSH1 0x0 JUMPDEST PUSH32 0x0 PUSH4 0xFFFFFFFF AND DUP2 LT ISZERO PUSH2 0x742 JUMPI PUSH1 0x0 PUSH1 0x3 DUP1 SLOAD SWAP1 POP DUP4 DUP4 DUP2 MLOAD DUP2 LT PUSH2 0x60E JUMPI PUSH2 0x60E PUSH2 0xA0D JUMP JUMPDEST PUSH1 0x20 MUL PUSH1 0x20 ADD ADD MLOAD PUSH2 0x620 SWAP2 SWAP1 PUSH2 0xA3C JUMP JUMPDEST SWAP1 POP PUSH1 0x0 PUSH1 0x3 DUP3 DUP2 SLOAD DUP2 LT PUSH2 0x637 JUMPI PUSH2 0x637 PUSH2 0xA0D JUMP JUMPDEST PUSH1 0x0 SWAP2 DUP3 MSTORE PUSH1 0x20 DUP1 DUP4 KECCAK256 SWAP1 SWAP2 ADD SLOAD PUSH1 0x1 PUSH1 0x1 PUSH1 0xA0 SHL SUB AND DUP1 DUP4 MSTORE PUSH1 0x2 SWAP1 SWAP2 MSTORE PUSH1 0x40 SWAP1 SWAP2 KECCAK256 SLOAD SWAP1 SWAP2 POP PUSH1 0xFF AND DUP1 ISZERO PUSH2 0x670 JUMPI POP PUSH1 0x3 SLOAD PUSH1 0x1 LT JUMPDEST ISZERO PUSH2 0x6CB JUMPI PUSH1 0x0 DUP3 GT PUSH2 0x690 JUMPI PUSH2 0x688 PUSH1 0x1 DUP4 PUSH2 0xA74 JUMP JUMPDEST SWAP2 POP DUP2 PUSH2 0x69F JUMP JUMPDEST PUSH2 0x69B PUSH1 0x1 DUP4 PUSH2 0xA8C JUMP JUMPDEST SWAP2 POP DUP2 JUMPDEST POP PUSH1 0x3 DUP3 DUP2 SLOAD DUP2 LT PUSH2 0x6B3 JUMPI PUSH2 0x6B3 PUSH2 0xA0D JUMP JUMPDEST PUSH1 0x0 SWAP2 DUP3 MSTORE PUSH1 0x20 SWAP1 SWAP2 KECCAK256 ADD SLOAD PUSH1 0x1 PUSH1 0x1 PUSH1 0xA0 SHL SUB AND SWAP1 POP JUMPDEST PUSH1 0x1 PUSH1 0x1 PUSH1 0xA0 SHL SUB AND PUSH1 0x0 DUP2 DUP2 MSTORE PUSH1 0x2 PUSH1 0x20 MSTORE PUSH1 0x40 DUP2 KECCAK256 DUP1 SLOAD PUSH1 0xFF NOT AND PUSH1 0x1 SWAP1 DUP2 OR SWAP1 SWAP2 SSTORE PUSH1 0x4 DUP1 SLOAD SWAP2 DUP3 ADD DUP2 SSTORE SWAP1 SWAP2 MSTORE PUSH32 0x8A35ACFBC15FF81A39AE7D344FD709F28E8600B4AA8C65C6B64BFE7FE36BD19B ADD DUP1 SLOAD PUSH1 0x1 PUSH1 0x1 PUSH1 0xA0 SHL SUB NOT AND SWAP1 SWAP2 OR SWAP1 SSTORE POP DUP1 PUSH2 0x73A DUP2 PUSH2 0xAA3 JUMP JUMPDEST SWAP2 POP POP PUSH2 0x5C6 JUMP JUMPDEST POP PUSH1 0x40 DUP1 MLOAD PUSH1 0x0 DUP2 MSTORE PUSH1 0x20 DUP2 ADD SWAP2 DUP3 SWAP1 MSTORE MLOAD PUSH2 0x760 SWAP2 PUSH1 0x3 SWAP2 PUSH2 0x86A JUMP JUMPDEST POP PUSH32 0x5550D46CFE9A00F98F1C52769EB9CC77BE63437BD42C74F0566E6AB7A54192DB PUSH1 0x4 PUSH1 0x0 DUP2 SLOAD DUP2 LT PUSH2 0x796 JUMPI PUSH2 0x796 PUSH2 0xA0D JUMP JUMPDEST PUSH1 0x0 SWAP2 DUP3 MSTORE PUSH1 0x20 SWAP2 DUP3 SWAP1 KECCAK256 ADD SLOAD PUSH1 0x40 MLOAD PUSH1 0x1 PUSH1 0x1 PUSH1 0xA0 SHL SUB SWAP1 SWAP2 AND DUP2 MSTORE ADD PUSH1 0x40 MLOAD DUP1 SWAP2 SUB SWAP1 LOG1 POP POP JUMP JUMPDEST PUSH1 0x0 SLOAD PUSH1 0x1 PUSH1 0x1 PUSH1 0xA0 SHL SUB AND CALLER EQ PUSH2 0x1F0 JUMPI PUSH1 0x40 MLOAD PUSH3 0x461BCD PUSH1 0xE5 SHL DUP2 MSTORE PUSH1 0x20 PUSH1 0x4 DUP3 ADD DUP2 SWAP1 MSTORE PUSH1 0x24 DUP3 ADD MSTORE PUSH32 0x4F776E61626C653A2063616C6C6572206973206E6F7420746865206F776E6572 PUSH1 0x44 DUP3 ADD MSTORE PUSH1 0x64 ADD PUSH2 0x1C7 JUMP JUMPDEST PUSH1 0x0 DUP1 SLOAD PUSH1 0x1 PUSH1 0x1 PUSH1 0xA0 SHL SUB DUP4 DUP2 AND PUSH1 0x1 PUSH1 0x1 PUSH1 0xA0 SHL SUB NOT DUP4 AND DUP2 OR DUP5 SSTORE PUSH1 0x40 MLOAD SWAP2 SWAP1 SWAP3 AND SWAP3 DUP4 SWAP2 PUSH32 0x8BE0079C531659141344CD1FD0A4F28419497F9722A3DAAFE3B4186F6B6457E0 SWAP2 SWAP1 LOG3 POP POP JUMP JUMPDEST DUP3 DUP1 SLOAD DUP3 DUP3 SSTORE SWAP1 PUSH1 0x0 MSTORE PUSH1 0x20 PUSH1 0x0 KECCAK256 SWAP1 DUP2 ADD SWAP3 DUP3 ISZERO PUSH2 0x8BF JUMPI SWAP2 PUSH1 0x20 MUL DUP3 ADD JUMPDEST DUP3 DUP2 GT ISZERO PUSH2 0x8BF JUMPI DUP3 MLOAD DUP3 SLOAD PUSH1 0x1 PUSH1 0x1 PUSH1 0xA0 SHL SUB NOT AND PUSH1 0x1 PUSH1 0x1 PUSH1 0xA0 SHL SUB SWAP1 SWAP2 AND OR DUP3 SSTORE PUSH1 0x20 SWAP1 SWAP3 ADD SWAP2 PUSH1 0x1 SWAP1 SWAP2 ADD SWAP1 PUSH2 0x88A JUMP JUMPDEST POP PUSH2 0x8CB SWAP3 SWAP2 POP PUSH2 0x8CF JUMP JUMPDEST POP SWAP1 JUMP JUMPDEST JUMPDEST DUP1 DUP3 GT ISZERO PUSH2 0x8CB JUMPI PUSH1 0x0 DUP2 SSTORE PUSH1 0x1 ADD PUSH2 0x8D0 JUMP JUMPDEST PUSH4 0x4E487B71 PUSH1 0xE0 SHL PUSH1 0x0 MSTORE PUSH1 0x41 PUSH1 0x4 MSTORE PUSH1 0x24 PUSH1 0x0 REVERT JUMPDEST PUSH1 0x0 DUP1 PUSH1 0x40 DUP4 DUP6 SUB SLT ISZERO PUSH2 0x90D JUMPI PUSH1 0x0 DUP1 REVERT JUMPDEST DUP3 CALLDATALOAD SWAP2 POP PUSH1 0x20 DUP1 DUP5 ADD CALLDATALOAD PUSH8 0xFFFFFFFFFFFFFFFF DUP1 DUP3 GT ISZERO PUSH2 0x92D JUMPI PUSH1 0x0 DUP1 REVERT JUMPDEST DUP2 DUP7 ADD SWAP2 POP DUP7 PUSH1 0x1F DUP4 ADD SLT PUSH2 0x941 JUMPI PUSH1 0x0 DUP1 REVERT JUMPDEST DUP2 CALLDATALOAD DUP2 DUP2 GT ISZERO PUSH2 0x953 JUMPI PUSH2 0x953 PUSH2 0x8E4 JUMP JUMPDEST DUP1 PUSH1 0x5 SHL PUSH1 0x40 MLOAD PUSH1 0x1F NOT PUSH1 0x3F DUP4 ADD AND DUP2 ADD DUP2 DUP2 LT DUP6 DUP3 GT OR ISZERO PUSH2 0x978 JUMPI PUSH2 0x978 PUSH2 0x8E4 JUMP JUMPDEST PUSH1 0x40 MSTORE SWAP2 DUP3 MSTORE DUP5 DUP3 ADD SWAP3 POP DUP4 DUP2 ADD DUP6 ADD SWAP2 DUP10 DUP4 GT ISZERO PUSH2 0x996 JUMPI PUSH1 0x0 DUP1 REVERT JUMPDEST SWAP4 DUP6 ADD SWAP4 JUMPDEST DUP3 DUP6 LT ISZERO PUSH2 0x9B4 JUMPI DUP5 CALLDATALOAD DUP5 MSTORE SWAP4 DUP6 ADD SWAP4 SWAP3 DUP6 ADD SWAP3 PUSH2 0x99B JUMP JUMPDEST DUP1 SWAP7 POP POP POP POP POP POP POP SWAP3 POP SWAP3 SWAP1 POP JUMP JUMPDEST PUSH1 0x0 PUSH1 0x20 DUP3 DUP5 SUB SLT ISZERO PUSH2 0x9D6 JUMPI PUSH1 0x0 DUP1 REVERT JUMPDEST POP CALLDATALOAD SWAP2 SWAP1 POP JUMP JUMPDEST PUSH1 0x0 PUSH1 0x20 DUP3 DUP5 SUB SLT ISZERO PUSH2 0x9EF JUMPI PUSH1 0x0 DUP1 REVERT JUMPDEST DUP2 CALLDATALOAD PUSH1 0x1 PUSH1 0x1 PUSH1 0xA0 SHL SUB DUP2 AND DUP2 EQ PUSH2 0xA06 JUMPI PUSH1 0x0 DUP1 REVERT JUMPDEST SWAP4 SWAP3 POP POP POP JUMP JUMPDEST PUSH4 0x4E487B71 PUSH1 0xE0 SHL PUSH1 0x0 MSTORE PUSH1 0x32 PUSH1 0x4 MSTORE PUSH1 0x24 PUSH1 0x0 REVERT JUMPDEST PUSH1 0x0 PUSH1 0x20 DUP3 DUP5 SUB SLT ISZERO PUSH2 0xA35 JUMPI PUSH1 0x0 DUP1 REVERT JUMPDEST POP MLOAD SWAP2 SWAP1 POP JUMP JUMPDEST PUSH1 0x0 DUP3 PUSH2 0xA59 JUMPI PUSH4 0x4E487B71 PUSH1 0xE0 SHL PUSH1 0x0 MSTORE PUSH1 0x12 PUSH1 0x4 MSTORE PUSH1 0x24 PUSH1 0x0 REVERT JUMPDEST POP MOD SWAP1 JUMP JUMPDEST PUSH4 0x4E487B71 PUSH1 0xE0 SHL PUSH1 0x0 MSTORE PUSH1 0x11 PUSH1 0x4 MSTORE PUSH1 0x24 PUSH1 0x0 REVERT JUMPDEST PUSH1 0x0 DUP3 NOT DUP3 GT ISZERO PUSH2 0xA87 JUMPI PUSH2 0xA87 PUSH2 0xA5E JUMP JUMPDEST POP ADD SWAP1 JUMP JUMPDEST PUSH1 0x0 DUP3 DUP3 LT ISZERO PUSH2 0xA9E JUMPI PUSH2 0xA9E PUSH2 0xA5E JUMP JUMPDEST POP SUB SWAP1 JUMP JUMPDEST PUSH1 0x0 PUSH1 0x0 NOT DUP3 EQ ISZERO PUSH2 0xAB7 JUMPI PUSH2 0xAB7 PUSH2 0xA5E JUMP JUMPDEST POP PUSH1 0x1 ADD SWAP1 JUMP INVALID LOG2 PUSH5 0x6970667358 0x22 SLT KECCAK256 ADDMOD CALL RETURN 0xAF 0xAE 0xCD 0xD1 PUSH14 0x39C33F08FD6B631A11C45E19B7B8 0xCE POP CODECOPY 0xBC 0xD6 SWAP9 DUP12 XOR DUP4 SWAP11 PUSH5 0x736F6C6343 STOP ADDMOD MULMOD STOP CALLER "},"gasEstimates":{"creation":{"codeDepositCost":"560800","executionCost":"infinite","totalCost":"infinite"},"external":{"endRaffle()":"infinite","enterToRaffle(address)":"56838","getWinner()":"4617","openRaffle()":"infinite","owner()":"2386","rawFulfillRandomWords(uint256,uint256[])":"infinite","renounceOwnership()":"infinite","s_players(uint256)":"4602","s_winners(uint256)":"4647","transferOwnership(address)":"28364"},"internal":{"fulfillRandomWords(uint256,uint256[] memory)":"infinite"}},"methodIdentifiers":{"endRaffle()":"ee095c0e","enterToRaffle(address)":"f6ac6e3c","getWinner()":"8e7ea5b2","openRaffle()":"b4ba7d36","owner()":"8da5cb5b","rawFulfillRandomWords(uint256,uint256[])":"1fe543e3","renounceOwnership()":"715018a6","s_players(uint256)":"ae771f6b","s_winners(uint256)":"756cd579","transferOwnership(address)":"f2fde38b"}},"storageLayout":{"storage":[{"astId":161,"contract":"contracts/HereticsRaffle.sol:HereticsRaffle","label":"_owner","offset":0,"slot":"0","type":"t_address"},{"astId":3570,"contract":"contracts/HereticsRaffle.sol:HereticsRaffle","label":"isPlayer","offset":0,"slot":"1","type":"t_mapping(t_address,t_bool)"},{"astId":3574,"contract":"contracts/HereticsRaffle.sol:HereticsRaffle","label":"isAlreadyWinner","offset":0,"slot":"2","type":"t_mapping(t_address,t_bool)"},{"astId":3580,"contract":"contracts/HereticsRaffle.sol:HereticsRaffle","label":"s_players","offset":0,"slot":"3","type":"t_array(t_address)dyn_storage"},{"astId":3583,"contract":"contracts/HereticsRaffle.sol:HereticsRaffle","label":"s_winners","offset":0,"slot":"4","type":"t_array(t_address)dyn_storage"},{"astId":3585,"contract":"contracts/HereticsRaffle.sol:HereticsRaffle","label":"s_isOpen","offset":0,"slot":"5","type":"t_bool"}],"types":{"t_address":{"encoding":"inplace","label":"address","numberOfBytes":"20"},"t_array(t_address)dyn_storage":{"base":"t_address","encoding":"dynamic_array","label":"address[]","numberOfBytes":"32"},"t_bool":{"encoding":"inplace","label":"bool","numberOfBytes":"1"},"t_mapping(t_address,t_bool)":{"encoding":"mapping","key":"t_address","label":"mapping(address => bool)","numberOfBytes":"32","value":"t_bool"}}},"userdoc":{"kind":"user","methods":{"enterToRaffle(address)":{"notice":"This function is used by the owner to add the players to the raffle."}},"notice":"This is a raffle contract","version":1}}}}